{
  "_format": "hh-sol-artifact-1",
  "contractName": "BookPortal",
  "sourceName": "contracts/BookPortal.sol",
  "abi": [
    {
      "inputs": [],
      "stateMutability": "nonpayable",
      "type": "constructor"
    },
    {
      "anonymous": false,
      "inputs": [
        {
          "indexed": true,
          "internalType": "address",
          "name": "sender",
          "type": "address"
        },
        {
          "indexed": false,
          "internalType": "uint256",
          "name": "timestamp",
          "type": "uint256"
        },
        {
          "indexed": false,
          "internalType": "string",
          "name": "book_name",
          "type": "string"
        }
      ],
      "name": "NewBook",
      "type": "event"
    },
    {
      "inputs": [
        {
          "internalType": "address",
          "name": "",
          "type": "address"
        }
      ],
      "name": "bookMap",
      "outputs": [
        {
          "internalType": "uint256",
          "name": "",
          "type": "uint256"
        }
      ],
      "stateMutability": "view",
      "type": "function"
    },
    {
      "inputs": [
        {
          "internalType": "uint256",
          "name": "",
          "type": "uint256"
        }
      ],
      "name": "books",
      "outputs": [
        {
          "internalType": "address",
          "name": "sender",
          "type": "address"
        },
        {
          "internalType": "string",
          "name": "book_name",
          "type": "string"
        },
        {
          "internalType": "uint256",
          "name": "timestamp",
          "type": "uint256"
        }
      ],
      "stateMutability": "view",
      "type": "function"
    },
    {
      "inputs": [
        {
          "internalType": "address",
          "name": "userAddress",
          "type": "address"
        }
      ],
      "name": "getBookCountPerUser",
      "outputs": [
        {
          "internalType": "uint256",
          "name": "",
          "type": "uint256"
        }
      ],
      "stateMutability": "view",
      "type": "function"
    },
    {
      "inputs": [],
      "name": "getTotalBookCount",
      "outputs": [
        {
          "internalType": "uint256",
          "name": "",
          "type": "uint256"
        }
      ],
      "stateMutability": "view",
      "type": "function"
    },
    {
      "inputs": [],
      "name": "getTotalBookData",
      "outputs": [
        {
          "components": [
            {
              "internalType": "address",
              "name": "sender",
              "type": "address"
            },
            {
              "internalType": "string",
              "name": "book_name",
              "type": "string"
            },
            {
              "internalType": "uint256",
              "name": "timestamp",
              "type": "uint256"
            }
          ],
          "internalType": "struct Book[]",
          "name": "",
          "type": "tuple[]"
        }
      ],
      "stateMutability": "view",
      "type": "function"
    },
    {
      "inputs": [
        {
          "internalType": "string",
          "name": "book_name",
          "type": "string"
        }
      ],
      "name": "handleBookRecords",
      "outputs": [],
      "stateMutability": "nonpayable",
      "type": "function"
    },
    {
      "inputs": [
        {
          "internalType": "string",
          "name": "book_name",
          "type": "string"
        }
      ],
      "name": "shareBook",
      "outputs": [],
      "stateMutability": "nonpayable",
      "type": "function"
    }
  ],
  "bytecode": "0x60806040523480156200001157600080fd5b506200005d6040518060400160405280601a81526020017f48656c6c6f21205468697320697320426f6f6b506f7274616c210000000000008152506200006360201b620006631760201c565b620001f7565b62000103816040516024016200007a919062000170565b6040516020818303038152906040527f41304fac000000000000000000000000000000000000000000000000000000007bffffffffffffffffffffffffffffffffffffffffffffffffffffffff19166020820180517bffffffffffffffffffffffffffffffffffffffffffffffffffffffff83818316178352505050506200010660201b60201c565b50565b60008151905060006a636f6e736f6c652e6c6f679050602083016000808483855afa5050505050565b60006200013c8262000194565b6200014881856200019f565b93506200015a818560208601620001b0565b6200016581620001e6565b840191505092915050565b600060208201905081810360008301526200018c81846200012f565b905092915050565b600081519050919050565b600082825260208201905092915050565b60005b83811015620001d0578082015181840152602081019050620001b3565b83811115620001e0576000848401525b50505050565b6000601f19601f8301169050919050565b610e3680620002076000396000f3fe608060405234801561001057600080fd5b506004361061007d5760003560e01c8063d73b15501161005b578063d73b155014610100578063ee6a664c1461011c578063fabb81b81461014c578063fc09e0061461016a5761007d565b806331bb4e6a1461008257806368744046146100b2578063d01d94ec146100e4575b600080fd5b61009c6004803603810190610097919061085a565b610188565b6040516100a99190610af6565b60405180910390f35b6100cc60048036038101906100c791906108c4565b6101d1565b6040516100db93929190610a74565b60405180910390f35b6100fe60048036038101906100f99190610883565b6102b3565b005b61011a60048036038101906101159190610883565b6103d2565b005b6101366004803603810190610131919061085a565b6104f1565b6040516101439190610af6565b60405180910390f35b610154610509565b6040516101619190610af6565b60405180910390f35b610172610512565b60405161017f9190610ab2565b60405180910390f35b6000600160008373ffffffffffffffffffffffffffffffffffffffff1673ffffffffffffffffffffffffffffffffffffffff168152602001908152602001600020549050919050565b600281815481106101e157600080fd5b90600052602060002090600302016000915090508060000160009054906101000a900473ffffffffffffffffffffffffffffffffffffffff169080600101805461022a90610cd1565b80601f016020809104026020016040519081016040528092919081815260200182805461025690610cd1565b80156102a35780601f10610278576101008083540402835291602001916102a3565b820191906000526020600020905b81548152906001019060200180831161028657829003601f168201915b5050505050908060020154905083565b600260405180606001604052803373ffffffffffffffffffffffffffffffffffffffff16815260200183815260200142815250908060018154018082558091505060019003906000526020600020906003020160009091909190915060008201518160000160006101000a81548173ffffffffffffffffffffffffffffffffffffffff021916908373ffffffffffffffffffffffffffffffffffffffff1602179055506020820151816001019080519060200190610372929190610725565b506040820151816002015550503373ffffffffffffffffffffffffffffffffffffffff167f331808600a4d912b8e9bc588bac830c19f949adcf305313bb165c611a62dff0742836040516103c7929190610b11565b60405180910390a250565b60016000808282546103e49190610bfd565b925050819055506000600160003373ffffffffffffffffffffffffffffffffffffffff1673ffffffffffffffffffffffffffffffffffffffff16815260200190815260200160002054905060018161043c9190610bfd565b905080600160003373ffffffffffffffffffffffffffffffffffffffff1673ffffffffffffffffffffffffffffffffffffffff168152602001908152602001600020819055503073ffffffffffffffffffffffffffffffffffffffff1663d01d94ec836040518263ffffffff1660e01b81526004016104bb9190610ad4565b600060405180830381600087803b1580156104d557600080fd5b505af11580156104e9573d6000803e3d6000fd5b505050505050565b60016020528060005260406000206000915090505481565b60008054905090565b60606002805480602002602001604051908101604052809291908181526020016000905b8282101561065a57838290600052602060002090600302016040518060600160405290816000820160009054906101000a900473ffffffffffffffffffffffffffffffffffffffff1673ffffffffffffffffffffffffffffffffffffffff1673ffffffffffffffffffffffffffffffffffffffff1681526020016001820180546105bf90610cd1565b80601f01602080910402602001604051908101604052809291908181526020018280546105eb90610cd1565b80156106385780601f1061060d57610100808354040283529160200191610638565b820191906000526020600020905b81548152906001019060200180831161061b57829003601f168201915b5050505050815260200160028201548152505081526020019060010190610536565b50505050905090565b6106f9816040516024016106779190610ad4565b6040516020818303038152906040527f41304fac000000000000000000000000000000000000000000000000000000007bffffffffffffffffffffffffffffffffffffffffffffffffffffffff19166020820180517bffffffffffffffffffffffffffffffffffffffffffffffffffffffff83818316178352505050506106fc565b50565b60008151905060006a636f6e736f6c652e6c6f679050602083016000808483855afa5050505050565b82805461073190610cd1565b90600052602060002090601f016020900481019282610753576000855561079a565b82601f1061076c57805160ff191683800117855561079a565b8280016001018555821561079a579182015b8281111561079957825182559160200191906001019061077e565b5b5090506107a791906107ab565b5090565b5b808211156107c45760008160009055506001016107ac565b5090565b60006107db6107d684610b66565b610b41565b9050828152602081018484840111156107f357600080fd5b6107fe848285610c8f565b509392505050565b60008135905061081581610dd2565b92915050565b600082601f83011261082c57600080fd5b813561083c8482602086016107c8565b91505092915050565b60008135905061085481610de9565b92915050565b60006020828403121561086c57600080fd5b600061087a84828501610806565b91505092915050565b60006020828403121561089557600080fd5b600082013567ffffffffffffffff8111156108af57600080fd5b6108bb8482850161081b565b91505092915050565b6000602082840312156108d657600080fd5b60006108e484828501610845565b91505092915050565b60006108f98383610a06565b905092915050565b61090a81610c53565b82525050565b61091981610c53565b82525050565b600061092a82610ba7565b6109348185610bca565b93508360208202850161094685610b97565b8060005b85811015610982578484038952815161096385826108ed565b945061096e83610bbd565b925060208a0199505060018101905061094a565b50829750879550505050505092915050565b600061099f82610bb2565b6109a98185610bdb565b93506109b9818560208601610c9e565b6109c281610dc1565b840191505092915050565b60006109d882610bb2565b6109e28185610bec565b93506109f2818560208601610c9e565b6109fb81610dc1565b840191505092915050565b6000606083016000830151610a1e6000860182610901565b5060208301518482036020860152610a368282610994565b9150506040830151610a4b6040860182610a56565b508091505092915050565b610a5f81610c85565b82525050565b610a6e81610c85565b82525050565b6000606082019050610a896000830186610910565b8181036020830152610a9b81856109cd565b9050610aaa6040830184610a65565b949350505050565b60006020820190508181036000830152610acc818461091f565b905092915050565b60006020820190508181036000830152610aee81846109cd565b905092915050565b6000602082019050610b0b6000830184610a65565b92915050565b6000604082019050610b266000830185610a65565b8181036020830152610b3881846109cd565b90509392505050565b6000610b4b610b5c565b9050610b578282610d03565b919050565b6000604051905090565b600067ffffffffffffffff821115610b8157610b80610d92565b5b610b8a82610dc1565b9050602081019050919050565b6000819050602082019050919050565b600081519050919050565b600081519050919050565b6000602082019050919050565b600082825260208201905092915050565b600082825260208201905092915050565b600082825260208201905092915050565b6000610c0882610c85565b9150610c1383610c85565b9250827fffffffffffffffffffffffffffffffffffffffffffffffffffffffffffffffff03821115610c4857610c47610d34565b5b828201905092915050565b6000610c5e82610c65565b9050919050565b600073ffffffffffffffffffffffffffffffffffffffff82169050919050565b6000819050919050565b82818337600083830152505050565b60005b83811015610cbc578082015181840152602081019050610ca1565b83811115610ccb576000848401525b50505050565b60006002820490506001821680610ce957607f821691505b60208210811415610cfd57610cfc610d63565b5b50919050565b610d0c82610dc1565b810181811067ffffffffffffffff82111715610d2b57610d2a610d92565b5b80604052505050565b7f4e487b7100000000000000000000000000000000000000000000000000000000600052601160045260246000fd5b7f4e487b7100000000000000000000000000000000000000000000000000000000600052602260045260246000fd5b7f4e487b7100000000000000000000000000000000000000000000000000000000600052604160045260246000fd5b6000601f19601f8301169050919050565b610ddb81610c53565b8114610de657600080fd5b50565b610df281610c85565b8114610dfd57600080fd5b5056fea2646970667358221220732b7553e0a95ac5f1b11653adecd643d24e4bede14427fc53b96bbd6520ed5364736f6c63430008040033",
  "linkReferences": {},
  "deployedLinkReferences": {}
}