{
  "_format": "hh-sol-artifact-1",
  "contractName": "BookPortal",
  "sourceName": "contracts/BookPortal.sol",
  "abi": [
    {
      "inputs": [],
      "stateMutability": "payable",
      "type": "constructor"
    },
    {
      "anonymous": false,
      "inputs": [
        {
          "indexed": true,
          "internalType": "address",
          "name": "sender",
          "type": "address"
        },
        {
          "indexed": false,
          "internalType": "uint256",
          "name": "timestamp",
          "type": "uint256"
        },
        {
          "indexed": false,
          "internalType": "string",
          "name": "book_name",
          "type": "string"
        }
      ],
      "name": "NewBook",
      "type": "event"
    },
    {
      "inputs": [
        {
          "internalType": "address",
          "name": "",
          "type": "address"
        }
      ],
      "name": "bookMap",
      "outputs": [
        {
          "internalType": "uint256",
          "name": "",
          "type": "uint256"
        }
      ],
      "stateMutability": "view",
      "type": "function"
    },
    {
      "inputs": [
        {
          "internalType": "uint256",
          "name": "",
          "type": "uint256"
        }
      ],
      "name": "books",
      "outputs": [
        {
          "internalType": "address",
          "name": "sender",
          "type": "address"
        },
        {
          "internalType": "string",
          "name": "book_name",
          "type": "string"
        },
        {
          "internalType": "uint256",
          "name": "timestamp",
          "type": "uint256"
        }
      ],
      "stateMutability": "view",
      "type": "function"
    },
    {
      "inputs": [],
      "name": "fundingOperations",
      "outputs": [],
      "stateMutability": "payable",
      "type": "function"
    },
    {
      "inputs": [],
      "name": "getBalance",
      "outputs": [
        {
          "internalType": "uint256",
          "name": "",
          "type": "uint256"
        }
      ],
      "stateMutability": "view",
      "type": "function"
    },
    {
      "inputs": [
        {
          "internalType": "address",
          "name": "userAddress",
          "type": "address"
        }
      ],
      "name": "getBookCountPerUser",
      "outputs": [
        {
          "internalType": "uint256",
          "name": "count",
          "type": "uint256"
        }
      ],
      "stateMutability": "view",
      "type": "function"
    },
    {
      "inputs": [],
      "name": "getTotalBookCount",
      "outputs": [
        {
          "internalType": "uint256",
          "name": "",
          "type": "uint256"
        }
      ],
      "stateMutability": "view",
      "type": "function"
    },
    {
      "inputs": [],
      "name": "getTotalBookData",
      "outputs": [
        {
          "components": [
            {
              "internalType": "address",
              "name": "sender",
              "type": "address"
            },
            {
              "internalType": "string",
              "name": "book_name",
              "type": "string"
            },
            {
              "internalType": "uint256",
              "name": "timestamp",
              "type": "uint256"
            }
          ],
          "internalType": "struct Book[]",
          "name": "",
          "type": "tuple[]"
        }
      ],
      "stateMutability": "view",
      "type": "function"
    },
    {
      "inputs": [
        {
          "internalType": "string",
          "name": "book_name",
          "type": "string"
        }
      ],
      "name": "shareBook",
      "outputs": [],
      "stateMutability": "nonpayable",
      "type": "function"
    }
  ],
  "bytecode": "0x60806040526200003360405180606001604052806027815260200162001339602791396200003960201b620006ea1760201c565b620001cd565b620000d98160405160240162000050919062000146565b6040516020818303038152906040527f41304fac000000000000000000000000000000000000000000000000000000007bffffffffffffffffffffffffffffffffffffffffffffffffffffffff19166020820180517bffffffffffffffffffffffffffffffffffffffffffffffffffffffff8381831617835250505050620000dc60201b60201c565b50565b60008151905060006a636f6e736f6c652e6c6f679050602083016000808483855afa5050505050565b600062000112826200016a565b6200011e818562000175565b93506200013081856020860162000186565b6200013b81620001bc565b840191505092915050565b6000602082019050818103600083015262000162818462000105565b905092915050565b600081519050919050565b600082825260208201905092915050565b60005b83811015620001a657808201518184015260208101905062000189565b83811115620001b6576000848401525b50505050565b6000601f19601f8301169050919050565b61115c80620001dd6000396000f3fe60806040526004361061007b5760003560e01c8063d73b15501161004e578063d73b155014610131578063ee6a664c1461015a578063fabb81b814610197578063fc09e006146101c25761007b565b806312065fe01461008057806331bb4e6a146100ab57806354b4175a146100e857806368744046146100f2575b600080fd5b34801561008c57600080fd5b506100956101ed565b6040516100a29190610dd7565b60405180910390f35b3480156100b757600080fd5b506100d260048036038101906100cd9190610a00565b6101f5565b6040516100df9190610dd7565b60405180910390f35b6100f061023e565b005b3480156100fe57600080fd5b5061011960048036038101906101149190610a6a565b61033d565b60405161012893929190610d15565b60405180910390f35b34801561013d57600080fd5b5061015860048036038101906101539190610a29565b61041f565b005b34801561016657600080fd5b50610181600480360381019061017c9190610a00565b610577565b60405161018e9190610dd7565b60405180910390f35b3480156101a357600080fd5b506101ac61058f565b6040516101b99190610dd7565b60405180910390f35b3480156101ce57600080fd5b506101d7610599565b6040516101e49190610d53565b60405180910390f35b600047905090565b6000600260008373ffffffffffffffffffffffffffffffffffffffff1673ffffffffffffffffffffffffffffffffffffffff168152602001908152602001600020549050919050565b600066038d7ea4c6800090504781111561028d576040517f08c379a000000000000000000000000000000000000000000000000000000000815260040161028490610db7565b60405180910390fd5b60003373ffffffffffffffffffffffffffffffffffffffff16826040516102b390610d00565b60006040518083038185875af1925050503d80600081146102f0576040519150601f19603f3d011682016040523d82523d6000602084013e6102f5565b606091505b5050905080610339576040517f08c379a000000000000000000000000000000000000000000000000000000000815260040161033090610d97565b60405180910390fd5b5050565b6003818154811061034d57600080fd5b90600052602060002090600302016000915090508060000160009054906101000a900473ffffffffffffffffffffffffffffffffffffffff169080600101805461039690610fc8565b80601f01602080910402602001604051908101604052809291908181526020018280546103c290610fc8565b801561040f5780601f106103e45761010080835404028352916020019161040f565b820191906000526020600020905b8154815290600101906020018083116103f257829003601f168201915b5050505050908060020154905083565b60018060008282546104319190610ef4565b925050819055506000600260003373ffffffffffffffffffffffffffffffffffffffff1673ffffffffffffffffffffffffffffffffffffffff1681526020019081526020016000205490506001816104899190610ef4565b905080600260003373ffffffffffffffffffffffffffffffffffffffff1673ffffffffffffffffffffffffffffffffffffffff168152602001908152602001600020819055506104d882610783565b6000606460005442446104eb9190610ef4565b6104f59190610ef4565b6104ff9190610ffa565b9050806000819055506032811015610572573073ffffffffffffffffffffffffffffffffffffffff166354b4175a6040518163ffffffff1660e01b8152600401600060405180830381600087803b15801561055957600080fd5b505af115801561056d573d6000803e3d6000fd5b505050505b505050565b60026020528060005260406000206000915090505481565b6000600154905090565b60606003805480602002602001604051908101604052809291908181526020016000905b828210156106e157838290600052602060002090600302016040518060600160405290816000820160009054906101000a900473ffffffffffffffffffffffffffffffffffffffff1673ffffffffffffffffffffffffffffffffffffffff1673ffffffffffffffffffffffffffffffffffffffff16815260200160018201805461064690610fc8565b80601f016020809104026020016040519081016040528092919081815260200182805461067290610fc8565b80156106bf5780601f10610694576101008083540402835291602001916106bf565b820191906000526020600020905b8154815290600101906020018083116106a257829003601f168201915b50505050508152602001600282015481525050815260200190600101906105bd565b50505050905090565b610780816040516024016106fe9190610d75565b6040516020818303038152906040527f41304fac000000000000000000000000000000000000000000000000000000007bffffffffffffffffffffffffffffffffffffffffffffffffffffffff19166020820180517bffffffffffffffffffffffffffffffffffffffffffffffffffffffff83818316178352505050506108a2565b50565b600360405180606001604052803373ffffffffffffffffffffffffffffffffffffffff16815260200183815260200142815250908060018154018082558091505060019003906000526020600020906003020160009091909190915060008201518160000160006101000a81548173ffffffffffffffffffffffffffffffffffffffff021916908373ffffffffffffffffffffffffffffffffffffffff16021790555060208201518160010190805190602001906108429291906108cb565b506040820151816002015550503373ffffffffffffffffffffffffffffffffffffffff167f331808600a4d912b8e9bc588bac830c19f949adcf305313bb165c611a62dff074283604051610897929190610df2565b60405180910390a250565b60008151905060006a636f6e736f6c652e6c6f679050602083016000808483855afa5050505050565b8280546108d790610fc8565b90600052602060002090601f0160209004810192826108f95760008555610940565b82601f1061091257805160ff1916838001178555610940565b82800160010185558215610940579182015b8281111561093f578251825591602001919060010190610924565b5b50905061094d9190610951565b5090565b5b8082111561096a576000816000905550600101610952565b5090565b600061098161097c84610e53565b610e22565b90508281526020810184848401111561099957600080fd5b6109a4848285610f86565b509392505050565b6000813590506109bb816110f8565b92915050565b600082601f8301126109d257600080fd5b81356109e284826020860161096e565b91505092915050565b6000813590506109fa8161110f565b92915050565b600060208284031215610a1257600080fd5b6000610a20848285016109ac565b91505092915050565b600060208284031215610a3b57600080fd5b600082013567ffffffffffffffff811115610a5557600080fd5b610a61848285016109c1565b91505092915050565b600060208284031215610a7c57600080fd5b6000610a8a848285016109eb565b91505092915050565b6000610a9f8383610c92565b905092915050565b610ab081610f4a565b82525050565b610abf81610f4a565b82525050565b6000610ad082610e93565b610ada8185610eb6565b935083602082028501610aec85610e83565b8060005b85811015610b285784840389528151610b098582610a93565b9450610b1483610ea9565b925060208a01995050600181019050610af0565b50829750879550505050505092915050565b6000610b4582610e9e565b610b4f8185610ed2565b9350610b5f818560208601610f95565b610b68816110e7565b840191505092915050565b6000610b7e82610e9e565b610b888185610ee3565b9350610b98818560208601610f95565b610ba1816110e7565b840191505092915050565b6000610bb9602783610ee3565b91507f4661696c656420746f2077697468647261772066756e64732066726f6d20636f60008301527f6e74726163742e000000000000000000000000000000000000000000000000006020830152604082019050919050565b6000610c1f602983610ee3565b91507f576974686472617720726571756573742065786365656420636f6e747261637460008301527f27732066756e64732100000000000000000000000000000000000000000000006020830152604082019050919050565b6000610c85600083610ec7565b9150600082019050919050565b6000606083016000830151610caa6000860182610aa7565b5060208301518482036020860152610cc28282610b3a565b9150506040830151610cd76040860182610ce2565b508091505092915050565b610ceb81610f7c565b82525050565b610cfa81610f7c565b82525050565b6000610d0b82610c78565b9150819050919050565b6000606082019050610d2a6000830186610ab6565b8181036020830152610d3c8185610b73565b9050610d4b6040830184610cf1565b949350505050565b60006020820190508181036000830152610d6d8184610ac5565b905092915050565b60006020820190508181036000830152610d8f8184610b73565b905092915050565b60006020820190508181036000830152610db081610bac565b9050919050565b60006020820190508181036000830152610dd081610c12565b9050919050565b6000602082019050610dec6000830184610cf1565b92915050565b6000604082019050610e076000830185610cf1565b8181036020830152610e198184610b73565b90509392505050565b6000604051905081810181811067ffffffffffffffff82111715610e4957610e486110b8565b5b8060405250919050565b600067ffffffffffffffff821115610e6e57610e6d6110b8565b5b601f19601f8301169050602081019050919050565b6000819050602082019050919050565b600081519050919050565b600081519050919050565b6000602082019050919050565b600082825260208201905092915050565b600081905092915050565b600082825260208201905092915050565b600082825260208201905092915050565b6000610eff82610f7c565b9150610f0a83610f7c565b9250827fffffffffffffffffffffffffffffffffffffffffffffffffffffffffffffffff03821115610f3f57610f3e61102b565b5b828201905092915050565b6000610f5582610f5c565b9050919050565b600073ffffffffffffffffffffffffffffffffffffffff82169050919050565b6000819050919050565b82818337600083830152505050565b60005b83811015610fb3578082015181840152602081019050610f98565b83811115610fc2576000848401525b50505050565b60006002820490506001821680610fe057607f821691505b60208210811415610ff457610ff3611089565b5b50919050565b600061100582610f7c565b915061101083610f7c565b9250826110205761101f61105a565b5b828206905092915050565b7f4e487b7100000000000000000000000000000000000000000000000000000000600052601160045260246000fd5b7f4e487b7100000000000000000000000000000000000000000000000000000000600052601260045260246000fd5b7f4e487b7100000000000000000000000000000000000000000000000000000000600052602260045260246000fd5b7f4e487b7100000000000000000000000000000000000000000000000000000000600052604160045260246000fd5b6000601f19601f8301169050919050565b61110181610f4a565b811461110c57600080fd5b50565b61111881610f7c565b811461112357600080fd5b5056fea264697066735822122023be6b46b569615410ce2dc6ef639536070fb099865dbdf959608704a7a2804f64736f6c6343000800003348656c6c6f2120546869732069732074686520426f6f6b506f7274616c20436f6e747261637421",
  "linkReferences": {},
  "deployedLinkReferences": {}
}