{
  "_format": "hh-sol-artifact-1",
  "contractName": "BookPortal",
  "sourceName": "contracts/BookPortal.sol",
  "abi": [
    {
      "inputs": [],
      "stateMutability": "payable",
      "type": "constructor"
    },
    {
      "anonymous": false,
      "inputs": [
        {
          "indexed": true,
          "internalType": "address",
          "name": "sender",
          "type": "address"
        },
        {
          "indexed": false,
          "internalType": "uint256",
          "name": "timestamp",
          "type": "uint256"
        },
        {
          "indexed": false,
          "internalType": "string",
          "name": "book_name",
          "type": "string"
        }
      ],
      "name": "NewBook",
      "type": "event"
    },
    {
      "inputs": [
        {
          "internalType": "address",
          "name": "",
          "type": "address"
        }
      ],
      "name": "bookMap",
      "outputs": [
        {
          "internalType": "uint256",
          "name": "",
          "type": "uint256"
        }
      ],
      "stateMutability": "view",
      "type": "function"
    },
    {
      "inputs": [
        {
          "internalType": "uint256",
          "name": "",
          "type": "uint256"
        }
      ],
      "name": "books",
      "outputs": [
        {
          "internalType": "address",
          "name": "sender",
          "type": "address"
        },
        {
          "internalType": "string",
          "name": "book_name",
          "type": "string"
        },
        {
          "internalType": "uint256",
          "name": "timestamp",
          "type": "uint256"
        }
      ],
      "stateMutability": "view",
      "type": "function"
    },
    {
      "inputs": [],
      "name": "getBalance",
      "outputs": [
        {
          "internalType": "uint256",
          "name": "",
          "type": "uint256"
        }
      ],
      "stateMutability": "view",
      "type": "function"
    },
    {
      "inputs": [
        {
          "internalType": "address",
          "name": "userAddress",
          "type": "address"
        }
      ],
      "name": "getBookCountPerUser",
      "outputs": [
        {
          "internalType": "uint256",
          "name": "",
          "type": "uint256"
        }
      ],
      "stateMutability": "view",
      "type": "function"
    },
    {
      "inputs": [],
      "name": "getTotalBookCount",
      "outputs": [
        {
          "internalType": "uint256",
          "name": "",
          "type": "uint256"
        }
      ],
      "stateMutability": "view",
      "type": "function"
    },
    {
      "inputs": [],
      "name": "getTotalBookData",
      "outputs": [
        {
          "components": [
            {
              "internalType": "address",
              "name": "sender",
              "type": "address"
            },
            {
              "internalType": "string",
              "name": "book_name",
              "type": "string"
            },
            {
              "internalType": "uint256",
              "name": "timestamp",
              "type": "uint256"
            }
          ],
          "internalType": "struct Book[]",
          "name": "",
          "type": "tuple[]"
        }
      ],
      "stateMutability": "view",
      "type": "function"
    },
    {
      "inputs": [
        {
          "internalType": "string",
          "name": "book_name",
          "type": "string"
        }
      ],
      "name": "shareBook",
      "outputs": [],
      "stateMutability": "nonpayable",
      "type": "function"
    },
    {
      "inputs": [],
      "name": "user",
      "outputs": [
        {
          "internalType": "address payable",
          "name": "",
          "type": "address"
        }
      ],
      "stateMutability": "view",
      "type": "function"
    }
  ],
  "bytecode": "0x60806040526200003360405180606001604052806027815260200162001356602791396200007960201b620005421760201c565b336000806101000a81548173ffffffffffffffffffffffffffffffffffffffff021916908373ffffffffffffffffffffffffffffffffffffffff1602179055506200020d565b620001198160405160240162000090919062000186565b6040516020818303038152906040527f41304fac000000000000000000000000000000000000000000000000000000007bffffffffffffffffffffffffffffffffffffffffffffffffffffffff19166020820180517bffffffffffffffffffffffffffffffffffffffffffffffffffffffff83818316178352505050506200011c60201b60201c565b50565b60008151905060006a636f6e736f6c652e6c6f679050602083016000808483855afa5050505050565b60006200015282620001aa565b6200015e8185620001b5565b935062000170818560208601620001c6565b6200017b81620001fc565b840191505092915050565b60006020820190508181036000830152620001a2818462000145565b905092915050565b600081519050919050565b600082825260208201905092915050565b60005b83811015620001e6578082015181840152602081019050620001c9565b83811115620001f6576000848401525b50505050565b6000601f19601f8301169050919050565b611139806200021d6000396000f3fe608060405234801561001057600080fd5b50600436106100885760003560e01c8063d73b15501161005b578063d73b15501461012b578063ee6a664c14610147578063fabb81b814610177578063fc09e0061461019557610088565b806312065fe01461008d57806331bb4e6a146100ab5780634f8632ba146100db57806368744046146100f9575b600080fd5b6100956101b3565b6040516100a29190610d3b565b60405180910390f35b6100c560048036038101906100c091906109b7565b6101bb565b6040516100d29190610d3b565b60405180910390f35b6100e3610204565b6040516100f09190610c5e565b60405180910390f35b610113600480360381019061010e9190610a21565b610228565b60405161012293929190610c79565b60405180910390f35b610145600480360381019061014091906109e0565b61030a565b005b610161600480360381019061015c91906109b7565b6103cf565b60405161016e9190610d3b565b60405180910390f35b61017f6103e7565b60405161018c9190610d3b565b60405180910390f35b61019d6103f1565b6040516101aa9190610cb7565b60405180910390f35b600047905090565b6000600260008373ffffffffffffffffffffffffffffffffffffffff1673ffffffffffffffffffffffffffffffffffffffff168152602001908152602001600020549050919050565b60008054906101000a900473ffffffffffffffffffffffffffffffffffffffff1681565b6003818154811061023857600080fd5b90600052602060002090600302016000915090508060000160009054906101000a900473ffffffffffffffffffffffffffffffffffffffff169080600101805461028190610f33565b80601f01602080910402602001604051908101604052809291908181526020018280546102ad90610f33565b80156102fa5780601f106102cf576101008083540402835291602001916102fa565b820191906000526020600020905b8154815290600101906020018083116102dd57829003601f168201915b5050505050908060020154905083565b600180600082825461031c9190610e4d565b925050819055506000600260003373ffffffffffffffffffffffffffffffffffffffff1673ffffffffffffffffffffffffffffffffffffffff1681526020019081526020016000205490506001816103749190610e4d565b905080600260003373ffffffffffffffffffffffffffffffffffffffff1673ffffffffffffffffffffffffffffffffffffffff168152602001908152602001600020819055506103c3826105db565b6103cb61073a565b5050565b60026020528060005260406000206000915090505481565b6000600154905090565b60606003805480602002602001604051908101604052809291908181526020016000905b8282101561053957838290600052602060002090600302016040518060600160405290816000820160009054906101000a900473ffffffffffffffffffffffffffffffffffffffff1673ffffffffffffffffffffffffffffffffffffffff1673ffffffffffffffffffffffffffffffffffffffff16815260200160018201805461049e90610f33565b80601f01602080910402602001604051908101604052809291908181526020018280546104ca90610f33565b80156105175780601f106104ec57610100808354040283529160200191610517565b820191906000526020600020905b8154815290600101906020018083116104fa57829003601f168201915b5050505050815260200160028201548152505081526020019060010190610415565b50505050905090565b6105d8816040516024016105569190610cd9565b6040516020818303038152906040527f41304fac000000000000000000000000000000000000000000000000000000007bffffffffffffffffffffffffffffffffffffffffffffffffffffffff19166020820180517bffffffffffffffffffffffffffffffffffffffffffffffffffffffff8381831617835250505050610859565b50565b6003604051806060016040528060008054906101000a900473ffffffffffffffffffffffffffffffffffffffff1673ffffffffffffffffffffffffffffffffffffffff16815260200183815260200142815250908060018154018082558091505060019003906000526020600020906003020160009091909190915060008201518160000160006101000a81548173ffffffffffffffffffffffffffffffffffffffff021916908373ffffffffffffffffffffffffffffffffffffffff16021790555060208201518160010190805190602001906106ba929190610882565b5060408201518160020155505060008054906101000a900473ffffffffffffffffffffffffffffffffffffffff1673ffffffffffffffffffffffffffffffffffffffff167f331808600a4d912b8e9bc588bac830c19f949adcf305313bb165c611a62dff07428360405161072f929190610d56565b60405180910390a250565b6000655af3107a4000905047811115610788576040517f08c379a000000000000000000000000000000000000000000000000000000000815260040161077f90610d1b565b60405180910390fd5b60008060009054906101000a900473ffffffffffffffffffffffffffffffffffffffff1673ffffffffffffffffffffffffffffffffffffffff16826040516107cf90610c49565b60006040518083038185875af1925050503d806000811461080c576040519150601f19603f3d011682016040523d82523d6000602084013e610811565b606091505b5050905080610855576040517f08c379a000000000000000000000000000000000000000000000000000000000815260040161084c90610cfb565b60405180910390fd5b5050565b60008151905060006a636f6e736f6c652e6c6f679050602083016000808483855afa5050505050565b82805461088e90610f33565b90600052602060002090601f0160209004810192826108b057600085556108f7565b82601f106108c957805160ff19168380011785556108f7565b828001600101855582156108f7579182015b828111156108f65782518255916020019190600101906108db565b5b5090506109049190610908565b5090565b5b80821115610921576000816000905550600101610909565b5090565b600061093861093384610dab565b610d86565b90508281526020810184848401111561095057600080fd5b61095b848285610ef1565b509392505050565b600081359050610972816110d5565b92915050565b600082601f83011261098957600080fd5b8135610999848260208601610925565b91505092915050565b6000813590506109b1816110ec565b92915050565b6000602082840312156109c957600080fd5b60006109d784828501610963565b91505092915050565b6000602082840312156109f257600080fd5b600082013567ffffffffffffffff811115610a0c57600080fd5b610a1884828501610978565b91505092915050565b600060208284031215610a3357600080fd5b6000610a41848285016109a2565b91505092915050565b6000610a568383610bdb565b905092915050565b610a6781610eb5565b82525050565b610a7681610ea3565b82525050565b610a8581610ea3565b82525050565b6000610a9682610dec565b610aa08185610e0f565b935083602082028501610ab285610ddc565b8060005b85811015610aee5784840389528151610acf8582610a4a565b9450610ada83610e02565b925060208a01995050600181019050610ab6565b50829750879550505050505092915050565b6000610b0b82610df7565b610b158185610e2b565b9350610b25818560208601610f00565b610b2e81611023565b840191505092915050565b6000610b4482610df7565b610b4e8185610e3c565b9350610b5e818560208601610f00565b610b6781611023565b840191505092915050565b6000610b7f602783610e3c565b9150610b8a82611034565b604082019050919050565b6000610ba2602983610e3c565b9150610bad82611083565b604082019050919050565b6000610bc5600083610e20565b9150610bd0826110d2565b600082019050919050565b6000606083016000830151610bf36000860182610a6d565b5060208301518482036020860152610c0b8282610b00565b9150506040830151610c206040860182610c2b565b508091505092915050565b610c3481610ee7565b82525050565b610c4381610ee7565b82525050565b6000610c5482610bb8565b9150819050919050565b6000602082019050610c736000830184610a5e565b92915050565b6000606082019050610c8e6000830186610a7c565b8181036020830152610ca08185610b39565b9050610caf6040830184610c3a565b949350505050565b60006020820190508181036000830152610cd18184610a8b565b905092915050565b60006020820190508181036000830152610cf38184610b39565b905092915050565b60006020820190508181036000830152610d1481610b72565b9050919050565b60006020820190508181036000830152610d3481610b95565b9050919050565b6000602082019050610d506000830184610c3a565b92915050565b6000604082019050610d6b6000830185610c3a565b8181036020830152610d7d8184610b39565b90509392505050565b6000610d90610da1565b9050610d9c8282610f65565b919050565b6000604051905090565b600067ffffffffffffffff821115610dc657610dc5610ff4565b5b610dcf82611023565b9050602081019050919050565b6000819050602082019050919050565b600081519050919050565b600081519050919050565b6000602082019050919050565b600082825260208201905092915050565b600081905092915050565b600082825260208201905092915050565b600082825260208201905092915050565b6000610e5882610ee7565b9150610e6383610ee7565b9250827fffffffffffffffffffffffffffffffffffffffffffffffffffffffffffffffff03821115610e9857610e97610f96565b5b828201905092915050565b6000610eae82610ec7565b9050919050565b6000610ec082610ec7565b9050919050565b600073ffffffffffffffffffffffffffffffffffffffff82169050919050565b6000819050919050565b82818337600083830152505050565b60005b83811015610f1e578082015181840152602081019050610f03565b83811115610f2d576000848401525b50505050565b60006002820490506001821680610f4b57607f821691505b60208210811415610f5f57610f5e610fc5565b5b50919050565b610f6e82611023565b810181811067ffffffffffffffff82111715610f8d57610f8c610ff4565b5b80604052505050565b7f4e487b7100000000000000000000000000000000000000000000000000000000600052601160045260246000fd5b7f4e487b7100000000000000000000000000000000000000000000000000000000600052602260045260246000fd5b7f4e487b7100000000000000000000000000000000000000000000000000000000600052604160045260246000fd5b6000601f19601f8301169050919050565b7f4661696c656420746f2077697468647261772066756e64732066726f6d20636f60008201527f6e74726163742e00000000000000000000000000000000000000000000000000602082015250565b7f576974686472617720726571756573742065786365656420636f6e747261637460008201527f27732066756e6473210000000000000000000000000000000000000000000000602082015250565b50565b6110de81610ea3565b81146110e957600080fd5b50565b6110f581610ee7565b811461110057600080fd5b5056fea2646970667358221220c99f34657abe9092c4f571f7ebd4a78d77a8ddc4a767b3727e1d8108f85fda0a64736f6c6343000804003348656c6c6f2120546869732069732074686520426f6f6b506f7274616c20436f6e747261637421",
  "linkReferences": {},
  "deployedLinkReferences": {}
}