{
  "_format": "hh-sol-artifact-1",
  "contractName": "BookPortal",
  "sourceName": "contracts/BookPortal.sol",
  "abi": [
    {
      "inputs": [],
      "stateMutability": "payable",
      "type": "constructor"
    },
    {
      "anonymous": false,
      "inputs": [
        {
          "indexed": true,
          "internalType": "address",
          "name": "sender",
          "type": "address"
        },
        {
          "indexed": false,
          "internalType": "uint256",
          "name": "timestamp",
          "type": "uint256"
        },
        {
          "indexed": false,
          "internalType": "string",
          "name": "book_name",
          "type": "string"
        }
      ],
      "name": "NewBook",
      "type": "event"
    },
    {
      "inputs": [
        {
          "internalType": "address",
          "name": "",
          "type": "address"
        }
      ],
      "name": "bookMap",
      "outputs": [
        {
          "internalType": "uint256",
          "name": "",
          "type": "uint256"
        }
      ],
      "stateMutability": "view",
      "type": "function"
    },
    {
      "inputs": [
        {
          "internalType": "uint256",
          "name": "",
          "type": "uint256"
        }
      ],
      "name": "books",
      "outputs": [
        {
          "internalType": "address",
          "name": "sender",
          "type": "address"
        },
        {
          "internalType": "string",
          "name": "book_name",
          "type": "string"
        },
        {
          "internalType": "uint256",
          "name": "timestamp",
          "type": "uint256"
        }
      ],
      "stateMutability": "view",
      "type": "function"
    },
    {
      "inputs": [],
      "name": "fundingOperations",
      "outputs": [],
      "stateMutability": "payable",
      "type": "function"
    },
    {
      "inputs": [],
      "name": "getBalance",
      "outputs": [
        {
          "internalType": "uint256",
          "name": "",
          "type": "uint256"
        }
      ],
      "stateMutability": "view",
      "type": "function"
    },
    {
      "inputs": [
        {
          "internalType": "address",
          "name": "userAddress",
          "type": "address"
        }
      ],
      "name": "getBookCountPerUser",
      "outputs": [
        {
          "internalType": "uint256",
          "name": "count",
          "type": "uint256"
        }
      ],
      "stateMutability": "view",
      "type": "function"
    },
    {
      "inputs": [],
      "name": "getTotalBookCount",
      "outputs": [
        {
          "internalType": "uint256",
          "name": "",
          "type": "uint256"
        }
      ],
      "stateMutability": "view",
      "type": "function"
    },
    {
      "inputs": [],
      "name": "getTotalBookData",
      "outputs": [
        {
          "components": [
            {
              "internalType": "address",
              "name": "sender",
              "type": "address"
            },
            {
              "internalType": "string",
              "name": "book_name",
              "type": "string"
            },
            {
              "internalType": "uint256",
              "name": "timestamp",
              "type": "uint256"
            }
          ],
          "internalType": "struct Book[]",
          "name": "",
          "type": "tuple[]"
        }
      ],
      "stateMutability": "view",
      "type": "function"
    },
    {
      "inputs": [
        {
          "internalType": "string",
          "name": "book_name",
          "type": "string"
        }
      ],
      "name": "shareBook",
      "outputs": [],
      "stateMutability": "nonpayable",
      "type": "function"
    },
    {
      "inputs": [],
      "name": "user",
      "outputs": [
        {
          "internalType": "address payable",
          "name": "",
          "type": "address"
        }
      ],
      "stateMutability": "view",
      "type": "function"
    }
  ],
  "bytecode": "0x60806040526200003360405180606001604052806027815260200162001471602791396200007960201b620007661760201c565b336000806101000a81548173ffffffffffffffffffffffffffffffffffffffff021916908373ffffffffffffffffffffffffffffffffffffffff1602179055506200020d565b620001198160405160240162000090919062000186565b6040516020818303038152906040527f41304fac000000000000000000000000000000000000000000000000000000007bffffffffffffffffffffffffffffffffffffffffffffffffffffffff19166020820180517bffffffffffffffffffffffffffffffffffffffffffffffffffffffff83818316178352505050506200011c60201b60201c565b50565b60008151905060006a636f6e736f6c652e6c6f679050602083016000808483855afa5050505050565b60006200015282620001aa565b6200015e8185620001b5565b935062000170818560208601620001c6565b6200017b81620001fc565b840191505092915050565b60006020820190508181036000830152620001a2818462000145565b905092915050565b600081519050919050565b600082825260208201905092915050565b60005b83811015620001e6578082015181840152602081019050620001c9565b83811115620001f6576000848401525b50505050565b6000601f19601f8301169050919050565b611254806200021d6000396000f3fe6080604052600436106100865760003560e01c806368744046116100595780636874404614610128578063d73b155014610167578063ee6a664c14610190578063fabb81b8146101cd578063fc09e006146101f857610086565b806312065fe01461008b57806331bb4e6a146100b65780634f8632ba146100f357806354b4175a1461011e575b600080fd5b34801561009757600080fd5b506100a0610223565b6040516100ad9190610ebd565b60405180910390f35b3480156100c257600080fd5b506100dd60048036038101906100d89190610abc565b61022b565b6040516100ea9190610ebd565b60405180910390f35b3480156100ff57600080fd5b50610108610274565b6040516101159190610de0565b60405180910390f35b610126610298565b005b34801561013457600080fd5b5061014f600480360381019061014a9190610b26565b6103b8565b60405161015e93929190610dfb565b60405180910390f35b34801561017357600080fd5b5061018e60048036038101906101899190610ae5565b61049a565b005b34801561019c57600080fd5b506101b760048036038101906101b29190610abc565b6105f3565b6040516101c49190610ebd565b60405180910390f35b3480156101d957600080fd5b506101e261060b565b6040516101ef9190610ebd565b60405180910390f35b34801561020457600080fd5b5061020d610615565b60405161021a9190610e39565b60405180910390f35b600047905090565b6000600360008373ffffffffffffffffffffffffffffffffffffffff1673ffffffffffffffffffffffffffffffffffffffff168152602001908152602001600020549050919050565b60008054906101000a900473ffffffffffffffffffffffffffffffffffffffff1681565b600066038d7ea4c680009050478111156102e7576040517f08c379a00000000000000000000000000000000000000000000000000000000081526004016102de90610e9d565b60405180910390fd5b60008060009054906101000a900473ffffffffffffffffffffffffffffffffffffffff1673ffffffffffffffffffffffffffffffffffffffff168260405161032e90610dcb565b60006040518083038185875af1925050503d806000811461036b576040519150601f19603f3d011682016040523d82523d6000602084013e610370565b606091505b50509050806103b4576040517f08c379a00000000000000000000000000000000000000000000000000000000081526004016103ab90610e7d565b60405180910390fd5b5050565b600481815481106103c857600080fd5b90600052602060002090600302016000915090508060000160009054906101000a900473ffffffffffffffffffffffffffffffffffffffff1690806001018054610411906110c0565b80601f016020809104026020016040519081016040528092919081815260200182805461043d906110c0565b801561048a5780601f1061045f5761010080835404028352916020019161048a565b820191906000526020600020905b81548152906001019060200180831161046d57829003601f168201915b5050505050908060020154905083565b6001600260008282546104ad9190610fda565b925050819055506000600360003373ffffffffffffffffffffffffffffffffffffffff1673ffffffffffffffffffffffffffffffffffffffff1681526020019081526020016000205490506001816105059190610fda565b905080600360003373ffffffffffffffffffffffffffffffffffffffff1673ffffffffffffffffffffffffffffffffffffffff16815260200190815260200160002081905550610554826107ff565b6000606460015442446105679190610fda565b6105719190610fda565b61057b91906110f2565b90508060018190555060328110156105ee573073ffffffffffffffffffffffffffffffffffffffff166354b4175a6040518163ffffffff1660e01b8152600401600060405180830381600087803b1580156105d557600080fd5b505af11580156105e9573d6000803e3d6000fd5b505050505b505050565b60036020528060005260406000206000915090505481565b6000600254905090565b60606004805480602002602001604051908101604052809291908181526020016000905b8282101561075d57838290600052602060002090600302016040518060600160405290816000820160009054906101000a900473ffffffffffffffffffffffffffffffffffffffff1673ffffffffffffffffffffffffffffffffffffffff1673ffffffffffffffffffffffffffffffffffffffff1681526020016001820180546106c2906110c0565b80601f01602080910402602001604051908101604052809291908181526020018280546106ee906110c0565b801561073b5780601f106107105761010080835404028352916020019161073b565b820191906000526020600020905b81548152906001019060200180831161071e57829003601f168201915b5050505050815260200160028201548152505081526020019060010190610639565b50505050905090565b6107fc8160405160240161077a9190610e5b565b6040516020818303038152906040527f41304fac000000000000000000000000000000000000000000000000000000007bffffffffffffffffffffffffffffffffffffffffffffffffffffffff19166020820180517bffffffffffffffffffffffffffffffffffffffffffffffffffffffff838183161783525050505061095e565b50565b6004604051806060016040528060008054906101000a900473ffffffffffffffffffffffffffffffffffffffff1673ffffffffffffffffffffffffffffffffffffffff16815260200183815260200142815250908060018154018082558091505060019003906000526020600020906003020160009091909190915060008201518160000160006101000a81548173ffffffffffffffffffffffffffffffffffffffff021916908373ffffffffffffffffffffffffffffffffffffffff16021790555060208201518160010190805190602001906108de929190610987565b5060408201518160020155505060008054906101000a900473ffffffffffffffffffffffffffffffffffffffff1673ffffffffffffffffffffffffffffffffffffffff167f331808600a4d912b8e9bc588bac830c19f949adcf305313bb165c611a62dff074283604051610953929190610ed8565b60405180910390a250565b60008151905060006a636f6e736f6c652e6c6f679050602083016000808483855afa5050505050565b828054610993906110c0565b90600052602060002090601f0160209004810192826109b557600085556109fc565b82601f106109ce57805160ff19168380011785556109fc565b828001600101855582156109fc579182015b828111156109fb5782518255916020019190600101906109e0565b5b509050610a099190610a0d565b5090565b5b80821115610a26576000816000905550600101610a0e565b5090565b6000610a3d610a3884610f39565b610f08565b905082815260208101848484011115610a5557600080fd5b610a6084828561107e565b509392505050565b600081359050610a77816111f0565b92915050565b600082601f830112610a8e57600080fd5b8135610a9e848260208601610a2a565b91505092915050565b600081359050610ab681611207565b92915050565b600060208284031215610ace57600080fd5b6000610adc84828501610a68565b91505092915050565b600060208284031215610af757600080fd5b600082013567ffffffffffffffff811115610b1157600080fd5b610b1d84828501610a7d565b91505092915050565b600060208284031215610b3857600080fd5b6000610b4684828501610aa7565b91505092915050565b6000610b5b8383610d5d565b905092915050565b610b6c81611042565b82525050565b610b7b81611030565b82525050565b610b8a81611030565b82525050565b6000610b9b82610f79565b610ba58185610f9c565b935083602082028501610bb785610f69565b8060005b85811015610bf35784840389528151610bd48582610b4f565b9450610bdf83610f8f565b925060208a01995050600181019050610bbb565b50829750879550505050505092915050565b6000610c1082610f84565b610c1a8185610fb8565b9350610c2a81856020860161108d565b610c33816111df565b840191505092915050565b6000610c4982610f84565b610c538185610fc9565b9350610c6381856020860161108d565b610c6c816111df565b840191505092915050565b6000610c84602783610fc9565b91507f4661696c656420746f2077697468647261772066756e64732066726f6d20636f60008301527f6e74726163742e000000000000000000000000000000000000000000000000006020830152604082019050919050565b6000610cea602983610fc9565b91507f576974686472617720726571756573742065786365656420636f6e747261637460008301527f27732066756e64732100000000000000000000000000000000000000000000006020830152604082019050919050565b6000610d50600083610fad565b9150600082019050919050565b6000606083016000830151610d756000860182610b72565b5060208301518482036020860152610d8d8282610c05565b9150506040830151610da26040860182610dad565b508091505092915050565b610db681611074565b82525050565b610dc581611074565b82525050565b6000610dd682610d43565b9150819050919050565b6000602082019050610df56000830184610b63565b92915050565b6000606082019050610e106000830186610b81565b8181036020830152610e228185610c3e565b9050610e316040830184610dbc565b949350505050565b60006020820190508181036000830152610e538184610b90565b905092915050565b60006020820190508181036000830152610e758184610c3e565b905092915050565b60006020820190508181036000830152610e9681610c77565b9050919050565b60006020820190508181036000830152610eb681610cdd565b9050919050565b6000602082019050610ed26000830184610dbc565b92915050565b6000604082019050610eed6000830185610dbc565b8181036020830152610eff8184610c3e565b90509392505050565b6000604051905081810181811067ffffffffffffffff82111715610f2f57610f2e6111b0565b5b8060405250919050565b600067ffffffffffffffff821115610f5457610f536111b0565b5b601f19601f8301169050602081019050919050565b6000819050602082019050919050565b600081519050919050565b600081519050919050565b6000602082019050919050565b600082825260208201905092915050565b600081905092915050565b600082825260208201905092915050565b600082825260208201905092915050565b6000610fe582611074565b9150610ff083611074565b9250827fffffffffffffffffffffffffffffffffffffffffffffffffffffffffffffffff0382111561102557611024611123565b5b828201905092915050565b600061103b82611054565b9050919050565b600061104d82611054565b9050919050565b600073ffffffffffffffffffffffffffffffffffffffff82169050919050565b6000819050919050565b82818337600083830152505050565b60005b838110156110ab578082015181840152602081019050611090565b838111156110ba576000848401525b50505050565b600060028204905060018216806110d857607f821691505b602082108114156110ec576110eb611181565b5b50919050565b60006110fd82611074565b915061110883611074565b92508261111857611117611152565b5b828206905092915050565b7f4e487b7100000000000000000000000000000000000000000000000000000000600052601160045260246000fd5b7f4e487b7100000000000000000000000000000000000000000000000000000000600052601260045260246000fd5b7f4e487b7100000000000000000000000000000000000000000000000000000000600052602260045260246000fd5b7f4e487b7100000000000000000000000000000000000000000000000000000000600052604160045260246000fd5b6000601f19601f8301169050919050565b6111f981611030565b811461120457600080fd5b50565b61121081611074565b811461121b57600080fd5b5056fea2646970667358221220ce2a01c801eb671ac9cda0ab11f69c2e6d98d5c461a5435269d0f7bc905f4d5764736f6c6343000800003348656c6c6f2120546869732069732074686520426f6f6b506f7274616c20436f6e747261637421",
  "linkReferences": {},
  "deployedLinkReferences": {}
}