{
  "_format": "hh-sol-artifact-1",
  "contractName": "WavePortal",
  "sourceName": "contracts/WavePortal.sol",
  "abi": [
    {
      "inputs": [],
      "stateMutability": "nonpayable",
      "type": "constructor"
    },
    {
      "inputs": [],
      "name": "getTotalWaves",
      "outputs": [
        {
          "internalType": "uint256",
          "name": "",
          "type": "uint256"
        }
      ],
      "stateMutability": "view",
      "type": "function"
    },
    {
      "inputs": [
        {
          "internalType": "address",
          "name": "userAddress",
          "type": "address"
        }
      ],
      "name": "getWavesPerUser",
      "outputs": [
        {
          "internalType": "uint256",
          "name": "",
          "type": "uint256"
        }
      ],
      "stateMutability": "view",
      "type": "function"
    },
    {
      "inputs": [],
      "name": "wave",
      "outputs": [],
      "stateMutability": "nonpayable",
      "type": "function"
    },
    {
      "inputs": [
        {
          "internalType": "address",
          "name": "",
          "type": "address"
        }
      ],
      "name": "waveMap",
      "outputs": [
        {
          "internalType": "uint256",
          "name": "",
          "type": "uint256"
        }
      ],
      "stateMutability": "view",
      "type": "function"
    }
  ],
  "bytecode": "0x60806040526040518060400160405280600b81526020017f57617665506f7274616c2e000000000000000000000000000000000000000000815250600090805190602001906200005192919062000256565b505a6002553480156200006357600080fd5b506200017b6040518060400160405280600c81526020017f486579212054686973206973000000000000000000000000000000000000000081525060008054620000ad9062000416565b80601f0160208091040260200160405190810160405280929190818152602001828054620000db9062000416565b80156200012c5780601f1062000100576101008083540402835291602001916200012c565b820191906000526020600020905b8154815290600101906020018083116200010e57829003601f168201915b50505050506040518060400160405280600e81526020017f417661696c61626c65206761733a0000000000000000000000000000000000008152506002546200018160201b620002771760201c565b6200048c565b62000227848484846040516024016200019e949392919062000358565b6040516020818303038152906040527f9fd009f5000000000000000000000000000000000000000000000000000000007bffffffffffffffffffffffffffffffffffffffffffffffffffffffff19166020820180517bffffffffffffffffffffffffffffffffffffffffffffffffffffffff83818316178352505050506200022d60201b60201c565b50505050565b60008151905060006a636f6e736f6c652e6c6f679050602083016000808483855afa5050505050565b828054620002649062000416565b90600052602060002090601f016020900481019282620002885760008555620002d4565b82601f10620002a357805160ff1916838001178555620002d4565b82800160010185558215620002d4579182015b82811115620002d3578251825591602001919060010190620002b6565b5b509050620002e39190620002e7565b5090565b5b8082111562000302576000816000905550600101620002e8565b5090565b60006200031382620003ba565b6200031f8185620003c5565b935062000331818560208601620003e0565b6200033c816200047b565b840191505092915050565b6200035281620003d6565b82525050565b6000608082019050818103600083015262000374818762000306565b905081810360208301526200038a818662000306565b90508181036040830152620003a0818562000306565b9050620003b1606083018462000347565b95945050505050565b600081519050919050565b600082825260208201905092915050565b6000819050919050565b60005b8381101562000400578082015181840152602081019050620003e3565b8381111562000410576000848401525b50505050565b600060028204905060018216806200042f57607f821691505b602082108114156200044657620004456200044c565b5b50919050565b7f4e487b7100000000000000000000000000000000000000000000000000000000600052602260045260246000fd5b6000601f19601f8301169050919050565b610752806200049c6000396000f3fe608060405234801561001057600080fd5b506004361061004c5760003560e01c80635acd728c146100515780636fe15b44146100815780639a2cdc081461008b578063d409d421146100a9575b600080fd5b61006b6004803603810190610066919061048f565b6100d9565b60405161007891906105c9565b60405180910390f35b610089610122565b005b610093610214565b6040516100a091906105c9565b60405180910390f35b6100c360048036038101906100be919061048f565b61025f565b6040516100d091906105c9565b60405180910390f35b6000600360008373ffffffffffffffffffffffffffffffffffffffff1673ffffffffffffffffffffffffffffffffffffffff168152602001908152602001600020549050919050565b60018060008282546101349190610600565b9250508190555061017a6040518060400160405280600c81526020017f257320697320776176656421000000000000000000000000000000000000000081525033610319565b6000600360003373ffffffffffffffffffffffffffffffffffffffff1673ffffffffffffffffffffffffffffffffffffffff1681526020019081526020016000205490506001816101cb9190610600565b905080600360003373ffffffffffffffffffffffffffffffffffffffff1673ffffffffffffffffffffffffffffffffffffffff1681526020019081526020016000208190555050565b60006102576040518060400160405280601681526020017f5765206861766520256420746f74616c207761766573000000000000000000008152506001546103b5565b600154905090565b60036020528060005260406000206000915090505481565b61031384848484604051602401610291949392919061053f565b6040516020818303038152906040527f9fd009f5000000000000000000000000000000000000000000000000000000007bffffffffffffffffffffffffffffffffffffffffffffffffffffffff19166020820180517bffffffffffffffffffffffffffffffffffffffffffffffffffffffff8381831617835250505050610451565b50505050565b6103b1828260405160240161032f92919061050f565b6040516020818303038152906040527f319af333000000000000000000000000000000000000000000000000000000007bffffffffffffffffffffffffffffffffffffffffffffffffffffffff19166020820180517bffffffffffffffffffffffffffffffffffffffffffffffffffffffff8381831617835250505050610451565b5050565b61044d82826040516024016103cb929190610599565b6040516020818303038152906040527f9710a9d0000000000000000000000000000000000000000000000000000000007bffffffffffffffffffffffffffffffffffffffffffffffffffffffff19166020820180517bffffffffffffffffffffffffffffffffffffffffffffffffffffffff8381831617835250505050610451565b5050565b60008151905060006a636f6e736f6c652e6c6f679050602083016000808483855afa5050505050565b60008135905061048981610705565b92915050565b6000602082840312156104a157600080fd5b60006104af8482850161047a565b91505092915050565b6104c181610656565b82525050565b60006104d2826105e4565b6104dc81856105ef565b93506104ec818560208601610692565b6104f5816106f4565b840191505092915050565b61050981610688565b82525050565b6000604082019050818103600083015261052981856104c7565b905061053860208301846104b8565b9392505050565b6000608082019050818103600083015261055981876104c7565b9050818103602083015261056d81866104c7565b9050818103604083015261058181856104c7565b90506105906060830184610500565b95945050505050565b600060408201905081810360008301526105b381856104c7565b90506105c26020830184610500565b9392505050565b60006020820190506105de6000830184610500565b92915050565b600081519050919050565b600082825260208201905092915050565b600061060b82610688565b915061061683610688565b9250827fffffffffffffffffffffffffffffffffffffffffffffffffffffffffffffffff0382111561064b5761064a6106c5565b5b828201905092915050565b600061066182610668565b9050919050565b600073ffffffffffffffffffffffffffffffffffffffff82169050919050565b6000819050919050565b60005b838110156106b0578082015181840152602081019050610695565b838111156106bf576000848401525b50505050565b7f4e487b7100000000000000000000000000000000000000000000000000000000600052601160045260246000fd5b6000601f19601f8301169050919050565b61070e81610656565b811461071957600080fd5b5056fea2646970667358221220293e3d3271768bdf45f382c1bfc3c8eae011bd04b66344a3a2dbbd8e912f7a4d64736f6c63430008040033",
  "linkReferences": {},
  "deployedLinkReferences": {}
}